:02000002D0002C
:1040000000400D0060860D00000006000C00050158
:084010000401E70500000000B7
:0440180098810D007E
:10401C0009480A49884208B505D0094A824202D0AB
:10402C00121A04F06FF80748074A0021121A04F01C
:10403C0074F8014808BD00BF9CE30320CC850D003B
:10404C0008E4032008E40320F0E7032070B502F035
:10405C0079F8074C074BE41AA40800251E46A54224
:10406C0004D056F8253098470135F8E770BD00BFED
:10407C00B8850D006C850D0000F04EB808B500F049
:10408C000DFABDE8084002F01FB801F041BD01F087
:10409C003FBD01F045BD01F043BD0078B0FA80F0A2
:1040AC00400970470123037070477047024A136838
:1040BC0001331360704700BF30E4032003681847D6
:1040CC00012A02D0022A02D004E0016002E00B684F
:1040DC0000B103600020704710B50123037483689E
:1040EC0004460BB1C06806E0006828B183680BB9C0
:1040FC0003F03DF8C3689847012363740020BDE8C2
:10410C00104001F061BB10B58368044613B1032263
:10411C0001469847204610BD70B53949394886B0DC
:10412C0001F08EF81820FFF7B0FF044600284FD09E
:10413C00354B0293354B0593354B049300254EF6C6
:10414C0060230360C56002A902220430FFF7B8FFA8
:10415C00059B2361049BE3602E49142002F0F8FFB9
:10416C0028B10574056045608560C5604574606163
:10417C00B0B1294B836063692849DC6060694FF4F6
:10418C00C0638DE809000922254B043001F0ECFADC
:10419C0030B963691B7CA3B9012001F0B5FAF8E7CB
:1041AC0065690023636165B12E6836B13046FFF74F
:1041BC00AAFF1021304602F0C7FF1421284602F056
:1041CC00C3FF01F0B1FA174B186002A8FFF79BFF71
:1041DC00154B002113201C6002F0E2FE002301228B
:1041EC00009312494FF0FF33132002F0EFF8012136
:1041FC00082002F0D5FE0E4800F08DFD06B070BD13
:10420C00AC810D0040E403202B5C0D00C9400D0077
:10421C00CD400D0004850D00A9700D00B6810D0078
:10422C00E5400D0030E7032098E40320B9400D0071
:10423C009CE4032010B5084C0023236002F0F0F836
:10424C004FF47A7001F0FAFE02F0E8F822683C2391
:10425C005343024A136010BD30E40320C4E403202E
:10426C0013B5002400210E4800F082FC0C488DEDA3
:10427C00010A00F099FC9DED010A48B90134052CA6
:10428C00F0D108490020084BC3E9000102B010BD71
:10429C00042CF6D010EE100A03F018FAF3E700BF66
:1042AC0014E403200000F87F38E4032010B512203A
:1042BC0002F0A0FE344C2060112002F09BFE334B28
:1042CC00334A186023681844022390FBF3F040F241
:1042DC003A73984206DD136803F23973984201DC95
:1042EC002C490AE0136803F23A72904210DDC3F5D0
:1042FC003B62083290420BDA2749284801F0D4FD82
:10430C000021082002F05DFE0022254B1A7010BD22
:10431C0040F6B732904220DCC3F53B630833984239
:10432C0031DD20491D4801F0BFFD1F491F4B002204
:10433C00D1E9000103F090FC28B31D4B93ED007AFA
:10434C00F0EE087AB4EEE77AF1EE10FA1BD5012103
:10435C00082002F036FE0122D7E740F6B833984227
:10436C0011D014490D4801F09FFD0F490F4B00224D
:10437C00D1E9000103F070FC28B10D4BF1EE007A8D
:10438C0093ED007ADEE710BD0CE4032010E403206B
:10439C009CE30320BD810D00C2810D00B4E4032019
:1043AC00C8E40320CB810D0038E4032000003E401C
:1043BC00B0E40320C6810D0008B5054800F045FCAB
:1043CC0007EE900A034BF8EE677AC3ED007A08BD4E
:1043DC009CE40320B0E403201FB5264B264C93ED40
:1043EC00000B0621684601F09DFD009A23492046EA
:1043FC0000F0A6FF684601F0E3FC2149684601F095
:10440C0048FD009A1F49204600F09AFF684601F0CB
:10441C00D7FC1D4B062193ED000A684601F068FDA0
:10442C00009A1A49204600F08BFF684601F0C8FC40
:10443C00174B0A221968684601F047FD009A154986
:10444C00204600F07DFF684601F0BAFC0A220821E4
:10445C00684601F03AFD009A0F49204600F070FFC3
:10446C00684601F0ADFC4FF4FA6001F0E7FD04B0D2
:10447C0010BD00BF38E4032040E40320CF810D00C1
:10448C00B4E40320D4810D00B0E40320D9810D00E5
:10449C00C4E40320DF810D00E4810D0008B50C4855
:1044AC0000F0EAFD90B1FFF787FFFFF7D9FEFFF7A9
:1044BC00C1FEFFF7FBFEFFF78FFF01F035F9054B4F
:1044CC001860BDE80840024800F081BF08BD00BF7D
:1044DC0040E4032030E70320F8B51B4D1B4C1C4F68
:1044EC001C4E01F0A1F81C4B1C4940F25B72284693
:1044FC0000F0DAFC28461A4D1A49224602F016FE44
:10450C003946284601F0A3FC2846174D2246314671
:10451C0002F00CFE3946284601F099FC2846134D52
:10452C002246314602F002FE01220F21284600F0FD
:10453C0027FA224628460E4902F0F8FD0D48BDE840
:10454C00F84000F039BB00BF40E4032008E403202E
:10455C00E8820D00CD5D0D00B7400D00EA810D0025
:10456C00B4E40320E7550D00A0E4032014E4032079
:10457C00E9490D009CE4032010B503682F2B044679
:10458C0004D9074A00210A2001F036FA23681F2BB0
:10459C0083BF03F01F03236002484FF0A04010BDFF
:1045AC0025570D000003005007B50B4B1B6800018D
:1045BC0019181A5C4B7802A803F01F0343EA421344
:1045CC0040F8043DFFF7D8FF019A01239340C0F84F
:1045DC000C3503B05DF804FBCCE4032007B50B4BA2
:1045EC001B68000119181A5C4B7802A803F01F0312
:1045FC0043EA421340F8043DFFF7BEFF019A012342
:10460C009340C0F8083503B05DF804FBCCE40320FC
:10461C0013B50F4B1B6800011A181C5C537802A8C9
:10462C0003F01F0343EA441440F8044DFFF7A4FFC2
:10463C00D0F8103502A840F8084DFFF79DFFD0F8D0
:10464C001035009823FA00F000F0010002B010BD04
:10465C00CCE4032038B504460D462846002102F070
:10466C009FFC2580204638BD70B5054601F0D6FE6E
:10467C000021288800F0E8FF01F0D2FE7D24013CE7
:10468C0014F0FF042DD0022001F046F82888FFF723
:10469C00BFFF0028F3D001F0C1FE2888FFF784FF8C
:1046AC000121288800F0D0FF01F0BAFE4FF4F07021
:1046BC0001F032F801F040F800210646288800F09D
:1046CC00C3FF462001F028F82888FFF7A1FFB0FAB5
:1046DC0080F4304601F038F84FF4CD70640901F0E5
:1046EC001BF8204670BD70B511F00106044615D0BC
:1046FC0001F022F805462088FFF756FF012120889B
:10470C0000F0A2FF012001F007F80021208800F042
:10471C009BFF284601F018F83B2014E001F00CF840
:10472C0005462088FFF740FF0121208800F08CFF10
:10473C00412000F0F1FF3146208800F085FF28462B
:10474C0001F002F80520BDE8704000F0E5BF38B577
:10475C00044600F0F1FF05462088FFF725FF0121F4
:10476C00208800F071FF012000F0D6FF0021208886
:10477C0000F06AFF0D2000F0CFFF2088FFF748FF04
:10478C000446284600F0E0FF2E2000F0C5FF20462E
:10479C0038BD2DE9F0410546884617460826012408
:1047AC0018EA040F14BF012100212846FFF79BFFD4
:1047BC006400013EE4B2F3D167B101F02FFE28880A
:1047CC00FFF70CFF2888012100F03EFFBDE8F04107
:1047DC0001F026BEBDE8F081F8B507460826002595
:1047EC0001243846FFF7B3FF00B125436400013EB6
:1047FC00E4B2F6D12846F8BD70B500220C4655211E
:10480C000646FFF7C6FF651E073415F8011F002288
:10481C003046FFF7BEFFA542F7D170BD0022CC2178
:10482C00FFF7B7BF002383720373C37200F10A0250
:10483C00023002F8013D8242FBD170472DE9F0476E
:10484C00057B04468846002D5ED1FFF70DFF20B98D
:10485C00A0722073E072BDE8F0872A46F021204652
:10486C00FFF797FF0126AA4637462046FFF76FFF52
:10487C0081462046FFF76BFFB9F1010F02D10128E9
:10488C001BD137E0814504EB05031ED1A27A974278
:10489C0007D29A78164214BF4FF001094FF0000965
:1048AC0004E00CBF4FF001094FF00009B9F1000F03
:1048BC0003D1082F08D8E77206E062194FF00109FE
:1048CC0093783343937004E0BA469A7822EA06024E
:1048DC009A70494620467600FFF705FF16F0FF0652
:1048EC0004BF0135EDB207F1010708BF0126072D02
:1048FC00FFB2BAD9402F07D984F80AA0BAF1000F39
:10490C0012D1012323730FE00020A0722073E072F8
:10491C00631C08F1FF38093413F8012F08F8012F34
:10492C00A342F9D1BDE8F087A378002BECD001208D
:10493C00EEE730B5054600200139C9B2FF2913D086
:10494C0015F8014B082280EA040313F0010F4FEA1B
:10495C0050001CBF80F08C03D8B2531E13F0FF0222
:10496C004FEA5404EFD1E7E730BD000008B500F082
:10497C005BFE014B186008BDCCE4032000F054BE74
:10498C0070B5044600236360A360E3602361636138
:10499C0023766376A2760E200E46FFF776FB05464D
:1049AC0010B13146FFF756FE2560204670BD38B574
:1049BC0000F110050C4600682946FFF73FFF031E67
:1049CC001DBF2B6823606B682360636014BF0120DC
:1049DC00002038BD00F11001FFF7E9BF10B50E2122
:1049EC000446006802F0B0FB204610BD0068FFF7DB
:1049FC0019BF0000F8B5837E04460D4616461BB958
:104A0C000B78002B00F0A6802068FFF72DFEA37E0C
:104A1C0023B11EB92068FFF701FF03E02946206887
:104A2C00FFF7EAFE002244212068FFF7B2FE40F2B5
:104A3C00EE2001F003FB2068FFF716FEA37E23B1E6
:104A4C001EB92068FFF7EAFE03E029462068FFF74D
:104A5C00D3FE0022BE212068FFF79BFE2B78262B6D
:104A6C0004D1002211462068FFF793FEE61C04F1E6
:104A7C000C072068FFF7B0FE06F8010FBE42F8D114
:104A8C000821201DFFF755FF237B20769842637683
:104A9C0060D12B78222B19D014D8102B5AD1E27A52
:104AAC00A388102A08BFA27A4FEAC30302BF23F0DF
:104ABC000F03C2F10C029B181BB200EE103ABAEEB7
:104ACC00CE0AF8BD262B1FD0282B43D1227A23796E
:104ADC0002F06002202A05D0402A06D042B923F009
:104AEC00070304E023F0030301E023F00103237127
:104AFC002379607943EA002000B202F0D5FD002250
:104B0C00164B02F037FE20E0A579284602F0CCFDCA
:104B1C0006466079C01007EE900AF8EEE77A0F4669
:104B2C0017EE900A02F0D2FD00220D4B02F022FE8D
:104B3C000B46290602464CBF0A490B49002002F0DD
:104B4C0019FE32463B4602F063FC03F0CDF800EE52
:104B5C00100AF8BD9FED050AF8BD00BF0000B03F7C
:104B6C000000A03F0000F0BF0000F03F0000C07F3D
:104B7C0038B5837E04460D463BB92A4604F1100134
:104B8C002046BDE83840FFF735BF037C002BF4D13D
:104B9C00FFF72CFF2046FFF71DFF0028EDD19FEDFE
:104BAC00010A38BD0000C07F027E407E131A5842B5
:104BBC005841704700F038BD60230370704738B51A
:104BCC0004460D4602F08CFA217801F03CFD02F00F
:104BDC0087FA036829469B68984702F081FA01F02E
:104BEC003AFD02F07DFA0122217801F029FD02F054
:104BFC0077FA03685B699847C0B238BD38B504468C
:104C0C000D4602F06DFA217801F01DFD02F068FAF4
:104C1C00036829469B68984702F062FA01F01BFD75
:104C2C0002F05EFA2178022201F00AFD02F058FA35
:104C3C0003685B699847044602F052FA03685B69A3
:104C4C00984744EA002080B238BD2C21FFF7D6BF2C
:104C5C0070B5064614460D4602F042FA317801F062
:104C6C00F2FC02F03DFA036829469B68984702F073
:104C7C0037FA036821469B68984702F031FABDE881
:104C8C00704001F0E8BC10B5002204460821FFF783
:104C9C00DFFF204600220921FFF7DAFF2046002221
:104CAC000421FFF7D5FF204600220521FFF7D0FF96
:104CBC00204600220621FFF7CBFF204600220321CD
:104CCC00FFF7C6FF2046FF222121FFF7C1FF01227B
:104CDC0018212046FFF7BCFF0A2001F0AFF920464F
:104CEC0017220721FFF7B4FF0A20BDE8104001F09E
:104CFC00A5B938B504460D461721FFF7A9FF204684
:104D0C0045F0A0021821FFF7A3FF20462E21BDE895
:104D1C003840FFF754BF10B5044602F0E1F901F03A
:104D2C005BFC00212046FFF74AFF452872D1204644
:104D3C00FFF7A9FF204629221321FFF789FF204600
:104D4C0089221421FFF784FF204602221521FFF748
:104D5C007FFF204600221621FFF77AFFB1220121A6
:104D6C002046FFF7C6FF204601220321FFF770FF04
:104D7C00204601220421FFF76BFF204603220F215E
:104D8C00FFF766FF032207212046FFF7B2FF01223F
:104D9C0002212046FFF7ADFF00220B212046FFF732
:104DAC00A8FF70220A212046FFF7A3FF24220C2122
:104DBC002046FFF79EFF00220E212046FFF799FFA9
:104DCC0000221E212046FFF794FF70221D21204651
:104DDC00FFF78FFF20221F212046FFF78AFF0022BA
:104DEC0011212046FFF785FF702210212046FFF786
:104DFC0080FF202212212046FFF77BFF2046FF2256
:104E0C000821FFF725FF20460F221821FFF720FF6E
:104E1C00012010BD002010BD00F006BC38B584691F
:104E2C000A4B036005467CB16368013B63605BB968
:104E3C00236820469B689847A368013BA3601BB975
:104E4C0023682046DB689847284638BD40840D000F
:104E5C0010B50446FFF7E2FF20461C2102F074F95E
:104E6C00204610BD38B51D46059B03630023044640
:104E7C00436302B1826419B104F1380001F014F8F3
:104E8C00049B2365069BE069A4F84C50FF2BB8BF2C
:104E9C00FF23A4F8543008B1FFF7FDF8B4F8540020
:104EAC00FFF7F5F8E06138BD2DE9FF410446002518
:104EBC00174698460E4601F03DFFE5610A4904F19C
:104ECC00380000F0C4FFFF2302930F230093204609
:104EDC00A564CDF804803B462A463146FFF7C2FF55
:104EEC00204604B0BDE8F081E8820D0010B5044600
:104EFC00204601F083FE0028FAD0204601F027FD61
:104F0C00C0B210BD2DE9F0470546C4698846FFF7CD
:104F1C00EDFF2070EB6993F800A04FF001090AF047
:104F2C00F00A00274E462846FFF7E0FFEB6998553C
:104F3C0000F07F0313FB09F31F44741C0306A4B297
:104F4C00BFB24FEAC91901D52646ECE7631EBAF188
:104F5C00300F88F8003013D12846D5F81C80FFF7A5
:104F6C00C5FF08F804002846F41CD5F81C8002364E
:104F7C00FFF7BCFFB6B2A4B208F80600022300E0AB
:104F8C0000231B1B9EB2A3199BB29F420BD9284630
:104F9C00FFF7ACFFB5F85430A34284BFEB6918554A
:104FAC000134A4B2EFE7B5F85400A0422CBF204660
:104FBC000020BDE8F087F7B507468E461E461D4615
:104FCC00002402A905F07F032144ED0918BF43F02A
:104FDC008003013401F8043CE4B2002DF1D1C4F19A
:104FEC000403D11802F803E0A54206DA2B1B01A832
:104FFC001344285C58710135F6E7721C224438467C
:10500C0001F0FBFB054600F08FFB01347862344461
:10501C00A8B2231A5842584103B0F0BD10B5C36969
:10502C00E0221A70C36900225A7004460222C16938
:10503C0001F0E3FB204601F0C9FD00F075FB606256
:10504C00A06210BD0233F0B59BB20D466C1A15F878
:10505C00016BA4B23EB1B0F854709F4203D95C1CF2
:10506C00D654A3B2F2E7191B0A44211202F8021C0F
:10507C0002F8014C1846F0BD38B5054601F0D3FBDB
:10508C00002814BF0124002402D1284601F09EFD03
:10509C00204638BD2DE9F04387B0044689461746B3
:1050AC001E46DDF83880FFF7E7FF0546002840F084
:1050BC00BD80A16C39B90346B4F84C20A16B2046D5
:1050CC0001F088FC09E0684601F0F0F82B46B4F8D2
:1050DC004C206946204601F0FFFC002800F0A2801D
:1050EC00012323849DF84C30042B15D1524B1868A6
:1050FC009A88ADF804200090E2699B7900988DF8AD
:10510C000630531DC2F80500BDF804109DF80620AA
:10511C009A7199800C2312E0484BD4F81CC0186883
:10512C0059681B7A6A4603C213706B4603CBCCF8E2
:10513C000500CCF8091013788CF80D300E23B8F15B
:10514C00000F0AD09DF840209DF83C10520142F00F
:10515C00060242EAC102D2B200E002229DF84810D7
:10516C0009B902F0FD022FB116B942F0800201E03C
:10517C0042F0C002E169CA54226DE169581C121256
:10518C000A549A1CE169206D88540333E26949463C
:10519C002046FFF757FFB8F1000F0BD00346E2692A
:1051AC0041462046FFF74EFFE2691199034620461F
:1051BC00FFF748FF67B10346E26939462046FFF71F
:1051CC0041FF2EB10346E26931462046FFF73AFF14
:1051DC00431F9BB2E26910212046FFF7ECFE00F062
:1051EC00A3FA4FF47A766062A062204601F006FDC5
:1051FC0040B900F099FAA36AC01A236D7343984220
:10520C00F3D90FE069462046FFF77CFE042809D14C
:10521C00E369DE7836B900F087FA0125A06284F8DC
:10522C002C6004E0204601F0D1FC00E0002528466B
:10523C0007B0BDE8F08300BFFD810D0004820D00B6
:10524C007FB5042305930123049300230393029356
:10525C00019300931A46FFF71DFF07B05DF804FB9E
:10526C002DE9F14F0D9E9DF828809DF82C509DF84E
:10527C00307004468B4691469A46FFF7FDFE002897
:10528C004CD0B4F85420E069002102F046FF05230D
:10529C00E26959462046FFF7D5FE6B1E012B12D84A
:1052AC00238CE26901339BB223841B121354411CDF
:1052BC0089B2E369228C5A54023080B21EB1238C1D
:1052CC005A1C22843380002291B283188A459BB2E7
:1052DC000AD9B4F854609E4202F1010204D919F8BB
:1052EC000160E169CE54EFE7B8F1000F0CBF30213B
:1052FC0031210FB141F00801022D02D141F004011E
:10530C0003E0012D08BF41F00201053BE2699BB2AD
:10531C00204601B0BDE8F04FFFF74DBE01B0BDE82F
:10532C00F08F1FB5089C0394002402949DF81C4038
:10533C0001949DF818400094FFF792FF04B010BD43
:10534C007FB5054610460E46144602F017FF0023A3
:10535C000293019300932246034631462846FFF7F9
:10536C00E0FF04B070BD38B504460D46FFF784FE6F
:10537C0090B1E36962221A70E36902225A70E36900
:10538C002A129A70E369DD700422E169204601F06B
:10539C0034FA003018BF012038BD38B504460D462C
:1053AC00FFF76AFE90B1E36972221A70E369022278
:1053BC005A70E3692A129A70E369DD700422E1697C
:1053CC00204601F01AFA003018BF012038BD2DE933
:1053DC00F04F83B000AF0446FFF74EFE8146002825
:1053EC0000F0F68000F0A0F9226D4FF47A7353436D
:1053FC00A26A821A9A42054603D8626A821A9342BA
:10540C0017D294F82C302BB1204601F0DFFB4FF073
:10541C000009DDE0E269C0211170E2695370E169B5
:10542C000222204601F0E9F901236562A56284F8A5
:10543C002C30204601F0E2FB002800F0C980F91D59
:10544C002046FFF75FFD0246002800F0C180E369AB
:10545C00A562187800F0F00130297DD1D4F830B075
:10546C00BBF1000F00F0B48097F807C003EB0C0001
:10547C00EA46817890F801E001EB0E2E1FFA8EFEC1
:10548C000EF1080121F00701ADEB010D684600217A
:10549C008EB2B64506D90CEB01061E44F67846547E
:1054AC000131F5E7002100F80E101E7806F0060613
:1054BC00022E0CF10301CCEB02021ED17144CEEB97
:1054CC00020213F801801944053A497801EB0828C7
:1054DC000CF1050171441944D847E36940221A7054
:1054EC00E3695E70E3691FFA88F84FEA28229A7024
:1054FC00E369042283F8038020E0042E24D1714454
:10550C00CEEB020213F801801944053A497801EBFD
:10551C0008280CF1050171441944D847E36950225D
:10552C001A70E36902225A70E3691FFA88F84FEA8D
:10553C0028229A70E369324683F80380E169204699
:10554C0001F05BF9656205E0033A7144CEEB0202AF
:10555C001944D847D5463BE0502908D19978DB78D7
:10556C0003EB012189B22046FFF7FDFE30E0402914
:10557C000CD0602908D19978DB7803EB012189B232
:10558C002046FFF70AFF23E070290DD1616BF9B1BA
:10559C00042A1DD110F0060F1AD19878DB7803EB92
:1055AC00002080B2884713E0902911D0C0290AD17D
:1055BC00D0221A70E36900225A70E1690222204657
:1055CC0001F01BF904E0D02904BF002384F82C302F
:1055DC0048460C37BD46BDE8F08F10B50446FFF7C2
:1055EC004BFD10B12046FFF719FDE06908B1FEF73D
:1055FC0052FD04F1380000F0E3FB2046FFF70EFCEF
:10560C00204610BD00F010B808B5024B1B689B6813
:10561C00019308BD6802030008B5024B1B68DB68E8
:10562C00019308BD6802030008B5024B1B681B6898
:10563C00019308BD2C02030008B5024B1B685B6884
:10564C00019308BD2C02030008B5024B1B689B6834
:10565C00019308BD2C02030008B5024B1B68DB68E4
:10566C00019308BD2C02030008B5024B1B681B6993
:10567C00019308BD2C02030008B5024B1B689B6903
:10568C00019308BD2C02030008B5024B1B68DB69B3
:10569C00019308BD2C02030008B5024B1B681B6A62
:1056AC00019308BD2C02030008B5024B1B685B6A12
:1056BC00019308BD2C02030008B5024B1B681B6B41
:1056CC00019308BD2C02030008B5024B1B68DB6973
:1056DC00019308BD3002030008B5024B1B681B6A1E
:1056EC00019308BD3002030008B5024B1B685B69CF
:1056FC00019308BD6C02030008B5024B1B685B6884
:10570C00019308BD1802030008B5024B1B689B6887
:10571C00019308BD1802030008B5024B1B68DB6837
:10572C00019308BD1802030008B5024B1B685B69A6
:10573C00019308BD1802030008B5024B1B689B6B54
:10574C00019308BD1802030008B5024B1B68DB6B04
:10575C00019308BD1802030008B5024B1B689B6E31
:10576C00019308BD3402030008B5024B1B685B684B
:10577C00019308BD4802030008B5024B1B689B68E7
:10578C00019308BD4802030008B5024B1B681B6956
:10579C00019308BD4802030008B5024B1B685B6906
:1057AC00019308BD4802030008B5024B1B685B6CF3
:1057BC00019308BD4802030008B5024B1B689B6CA3
:1057CC00019308BD4802030008B5024B1B68DB6E51
:1057DC00019308BD4802030008B5024B1B685B69C6
:1057EC00019308BD6402030008B5024B1B681B6AD9
:1057FC00019308BD6402030008B5024B1B689B6A49
:10580C00019308BD6402030008B5024B1B681B68BA
:10581C00019308BD3C02030008B5024B1B68DB6812
:10582C00019308BD3C02030008B5024B1B681B69C1
:10583C00019308BD3C02030008B5024B1B685B6971
:10584C00019308BD3C02030008B5024B1B689B6921
:10585C00019308BD3C02030008B5024B1B68DB69D1
:10586C00019308BD3C02030008B5024B1B681B6A80
:10587C00019308BD3C02030008B5024B1B689B6AF0
:10588C00019308BD3C02030008B5024B1B68DB68A2
:10589C00019308BD2802030008B5024B1B689B69E5
:1058AC00019308BD2802030008B5024B1B68DB6995
:1058BC00019308BD2802030008B5024B1B681B6A44
:1058CC00019308BD2802030008B5024B1B685B6AF4
:1058DC00019308BD2802030008B5024B1B689B6AA4
:1058EC00019308BD2802030008B5024B1B68DB6A54
:1058FC00019308BD2802030008B5024B1B681B6B03
:10590C00019308BD2802030008B5024B1B685B6BB2
:10591C00019308BD2802030008B5024B1B681B6CE1
:10592C00019308BD2802030008B5024B1B681B6DD0
:10593C00019308BD2802030008B5024B1B689B6944
:10594C00019308BD3802030008B5024B1B68DB69E4
:10595C00019308BD3802030008B5024B1B681B6A93
:10596C00019308BD3802030008B5024B1B689B6A03
:10597C00019308BD3802030008B5024B1B681B6B72
:10598C00019308BD3802030008B5024B1B689B6BE2
:10599C00019308BD3802030008B5024B1B681B6855
:1059AC00019308BD4C02030008B5024B1B681B6930
:1059BC00019308BD4C02030008B5024B1B685B69E0
:1059CC00019308BD4C02030008B5024B1B689B6990
:1059DC00019308BD4C02030008B5024B1B68DB6940
:1059EC00019308BD4C02030008B5024B1B681B6AEF
:1059FC00019308BD4C02030008B5024B1B685B6B9E
:105A0C00019308BD6002030008B5024B1B681B6DB7
:105A1C00019308BD6002030008B5024B1B685B686C
:105A2C00019308BD2002030008B5024B1B685B699B
:105A3C00019308BD2002030008B5034B1B68D3F883
:105A4C008830019308BD00002002030008B5034B09
:105A5C001B68D3F89430019308BD000020020300AA
:105A6C0008B5024B1B685B68019308BD400203003C
:105A7C0008B5024B1B689B68019308BD40020300EC
:105A8C0008B5024B1B68DB68019308BD400203009C
:105A9C0008B5024B1B681B69019308BD400203004B
:105AAC0008B5024B1B685B69019308BD40020300FB
:105ABC0008B5024B1B689B69019308BD40020300AB
:105ACC0008B5024B1B68DB69019308BD400203005B
:105ADC0008B5024B1B681B6A019308BD400203000A
:105AEC0008B5024B1B681B6B019308BD40020300F9
:105AFC0008B5024B1B685B6B019308BD40020300A9
:105B0C0008B5024B1B68DB6B019308BD4402030014
:105B1C0008B5024B1B681B68019308BD1C020300EF
:105B2C0008B5024B1B685B68019308BD1C0203009F
:105B3C0008B5024B1B689B68019308BD1C0203004F
:105B4C0008B5024B1B68DB6A019308BD1C020300FD
:105B5C0008B5024B1B68DB6B019308BD1C020300EC
:105B6C00002211464068FFF7B3BF0022114640687F
:105B7C00FFF7BEBF00224068FFF7B2BF002281F0E2
:105B8C0001014068FFF79CBF00231A461946406884
:105B9C00FFF78EBF00231A4619464068FFF780BFF7
:105BAC00002211464068FFF773BF0022114640687F
:105BBC00FFF75EBF002202214068FFF761BF0023A0
:105BCC001A464068FFF74CBF024B03225A60024A48
:105BDC001A607047D0E4032018820D0010B50446FB
:105BEC0001700846FFF770FD00236360204610BD6E
:105BFC000078FFF771BD10B50446006818B1FFF7C7
:105C0C008FFF0023236010BD10B50446FFF7F3FF90
:105C1C00204610BD014600228C20FFF79DBD0020C0
:105C2C00FFF7F8BF10B5094C00204FF6FF7320604A
:105C3C00A080A07120816381FFF7EEFE2046044A0C
:105C4C000449BDE8104001F071BA00BFD8E403204C
:105C5C0008E40320155C0D0010B5044602F08EFA22
:105C6C00013823182046984206D20278197800F899
:105C7C00011B03F80129F6E710BD70B50C46911E07
:105C8C00222920D82546294610B9234430220EE07B
:105C9C00B0FBF2F602FB1600C1B205F8011B092895
:105CAC0094BF3031573105F8011C3046EBE799426F
:105CBC0002D201F8012BFAE7002320460B70FFF704
:105CCC00CBFF204670BD002070BD38B5031E0C46BE
:105CDC0015460BDAB3F1004F4FF02D0214BF5842AA
:105CEC00184601230A702A46194400E00123FFF7E5
:105CFC00C4FF204638BD00002DE9F14F59EC108B44
:105D0C0007460E460022002310EE100A494601F009
:105D1C00A3FF28B109F1004399462D2333700136B6
:105D2C00002301240A22D9B28F4202D954430133F1
:105D3C00F9E7204601F0B8FC42464B4601F01AFD4B
:105D4C0082468B4602F038F88046894601F0DCFC2E
:105D5C0002460B465046594601F058FB0022174BA1
:105D6C0001F08EFF18B118F1010849F10009E5178F
:105D7C0022462B464046494602F006F801230A22E9
:105D8C003146FFF77AFFAFB1304602F0F7F92E2318
:105D9C0033540130064422462B464046494601F016
:105DAC00F3FF3B46104631460A2201B0BDE8F04FE6
:105DBC00FFF763BF01B0BDE8F08F00BF0000E03F0C
:105DCC0010B504460068FFF7ABFE204610BD10B5B9
:105DDC000446006808B1FFF7A3FE00232360A3600C
:105DEC00636010BD38B504460D4600680131FFF7FD
:105DFC009FFE10B184E82100012038BD10B5036866
:105E0C00044613B143688B4207D22046FFF7EAFFE2
:105E1C0020B1A3680BB922681370012010BD70B5B6
:105E2C000E46114604461546FFF7E8FF18B9204602
:105E3C00FFF7CDFF09E02A463146A560206802F045
:105E4C0061F92268A3680021D154204670BD38B591
:105E5C000023044603604360836003730D4639B12D
:105E6C00084602F08BF9294602462046FFF7D7FF79
:105E7C00204638BD884210B50B46044607D0096849
:105E8C0019B19A68FFF7CBFF01E0FFF7A0FF20469E
:105E9C0010BD10B500230446036043608360037398
:105EAC00FFF7E8FF204610BD38B505460C4641B15A
:105EBC00084602F063F9214602462846FFF7AFFF79
:105ECC0001E0FFF784FF284638BD10B504460023D7
:105EDC008AB023606360A3602373084601A9FFF7AF
:105EEC00F4FE01A92046FFF7DFFF20460AB010BDE3
:105EFC0030B500238BB003604360836003730446AA
:105F0C0010EE100ACDB201F0E1FB41EC100B01A92F
:105F1C002846FFF7F1FE01A92046FFF7C5FF2046F2
:105F2C000BB030BD10B500238AB00446036043604B
:105F3C0083600373C8B201A9FFF7DEFE01A92046F6
:105F4C00FFF7B2FF20460AB010BD10B5044600683A
:105F5C0008B1FFF731FC204610BD000010B5064C0F
:105F6C00002320462360FFF71FFC2046034A044908
:105F7C00BDE8104001F0DAB8E4E4032008E40320A3
:105F8C00575F0D00F8B506460D468F180024BD422C
:105F9C000CD0336815F8011B9B68304698470028D5
:105FAC0001DB0444F3E7002C08BF04462046F8BD8F
:105FBC0070B505460C46084649B102F0DFF82B686F
:105FCC00024621462846DB68BDE87040184770BD84
:105FDC0003689B68184730B58BB00B4600218DF8D1
:105FEC002410012A98BF0A220DF12304B3FBF2F509
:105FFC0005FB123303F0FF03092B94BF3033373307
:10600C00DBB2214604F801392B46002DEED1FFF707
:10601C00CFFF0BB030BD0000014B024A1A60704735
:10602C00E8E40320B7820D00024B1A68024B1A6099
:10603C00704700BFA0E30320ECE403200021FFF72E
:10604C00F3BC10B50446FEF75EF8204610BD13B540
:10605C000B46044603C88DE8030093E8030084E86C
:10606C0003009DE8030083E8030002B010BD0000AC
:10607C000348044A04490023836001F057B800BF69
:10608C00F0E4032008E403204F600D0008B50C4B2E
:10609C0033B100F073F903681B699847002809DCD9
:1060AC00084B63B100F01AFA03681B699847002883
:1060BC0003DC08BDAFF30080F2E7AFF3008008BD4E
:1060CC00000000000000000008B5FFF7DFFFFFF73D
:1060DC002BFB014B186008BD30E703200248034A34
:1060EC000349121A02F00EB800F4032004F4032042
:1060FC00C8850D0007B5002300931A466FF0770191
:10610C00FFF7A4FC03B05DF804FB000007B543885F
:10611C000A2B08D0502B09D1094B1B683BB103B09B
:10612C005DF804EB1847FFF7E5FF06E0002300934A
:10613C001A466FF07701FFF789FC03B05DF804FB9A
:10614C0000E5032038B5104C104D2368AB42104BC2
:10615C000CBF012200221A7002D0FFF7BFFF25608E
:10616C00FFF7CAFA044601F0E1FF0A4B13B12046CF
:10617C00AFF3008000210748FFF7C2FC002106485E
:10618C00BDE83840FFF758BC00F403201E1C279ACA
:10619C0004E503200000000019610D00704710B5E4
:1061AC001821044600F0D0FF204610BDF0B5037D49
:1061BC00062B8DB00E4600F104074FF0000402D000
:1061CC0000F1080518E00CAD394605F8304D2F23C9
:1061DC002A460A20FFF700FB284601F0CFFF336860
:1061EC000246DB682946304698470FE024B12E2141
:1061FC003046FFF7EDFE044415F8011D0A22304627
:10620C00FFF7E9FEBD420444F0D120460DB0F0BDCD
:10621C0010B5054B0446112240F8043B002101F057
:10622C007CFF204610BD00BF54830D000346074A77
:10623C0010B543F8042B01F1100251F8044B43F84C
:10624C00044B9142F9D10A781A7010BD54830D0099
:10625C00037D042B01D1406808E0062B0AD143686A
:10626C0053B9836843B9C36833B90069003018BFA8
:10627C0001207047002070470120704710B59DF831
:10628C00084044EA032343EA024242EA0161042340
:10629C004160037510BD37B50D788B784A78C97895
:1062AC0000912946FFF7EAFF03B030BD10B5034B50
:1062BC0003600446FFF7EFFF204610BD54830D002A
:1062CC0041747047704708B50021007CFFF77CFBD8
:1062DC0030EA200028BF4FF0FF3008BD08B501217F
:1062EC00007CFFF771FB30EA200028BF4FF0FF3035
:1062FC0008BD08B5007CFFF75FFB20EAE07008BD25
:10630C0008B5007CFFF750FB20EAE07008BD007C6C
:10631C00FFF76ABB10B51421044600F015FF2046A8
:10632C0010BD38B50446007C0D46FFF745FB002830
:10633C0001DC607C28B12946207CFFF74DFB20EA6C
:10634C00E07038BD10B50446002363604FF47A73D7
:10635C00A360054B23600123084621746374114626
:10636C00FFF71AFB204610BD68830D0010B51422F0
:10637C000446002101F0D1FE204610BD30B50E4D73
:10638C0087B001A8FFF7F2FF296811F0010410D1C2
:10639C002846FDF782FE60B101AA21460748FFF7A7
:1063AC00D1FF2846FDF77EFE054A0649034800F05A
:1063BC00BDFE024807B030BD08E503200CE5032004
:1063CC0008E40320D1620D0000470000F0B585B051
:1063DC001C460E4617460546FFF756F90020844228
:1063EC004FF0040303908DF80C30A5BF9DF82830B6
:1063FC008DF80E30034603AB009332463B460649FC
:10640C00A8BF8DF80D402846FFF736F9B0FA80F09A
:10641C00400905B0F0BD00BFD5630D00FFF744B9CE
:10642C00FFF73AB970474174704708B5007CFFF725
:10643C0023FA20EAE07008BD08B5007CFFF7F4F9F8
:10644C0020EAE07008BD08B5007CFFF7FDF930EAE2
:10645C00200028BF4FF0FF3008BD08B5007CFFF7C7
:10646C00EBF930EA200028BF4FF0FF3008BD007C6C
:10647C00FFF7F2B910B51421044600F065FE204672
:10648C0010BD70B5457C04460E4625B9007CFFF75F
:10649C00F3F9002805DD3146207CBDE87040FFF79C
:1064AC00BBB9284670BD000010B50446084611461D
:1064BC00002262604FF47A72A260054A22600122C7
:1064CC00207462741A46FFF79FF9204610BD00BF76
:1064DC0098830D00007CFFF7C7B90000F8B5194C84
:1064EC0025684DB98420FDF7D0FD064618B18422ED
:1064FC00294601F012FE2660134D2E684EB98420F9
:10650C00FDF7C3FD074618B18422314601F005FEA4
:10651C002F600E4F396811F0010611D13846FDF786
:10652C00BCFD68B122682B6809483146FFF7BCFFF7
:10653C003846FDF7B7FD074A0749054800F0F6FD58
:10654C000348F8BD3CE5032034E5032038E503207F
:10655C0020E5032008E4032031640D007047F8B5F2
:10656C00064615460C468F18BC4206D0336814F804
:10657C00011B9B6830469847F6E72846F8BD002279
:10658C00007CFFF799B90021007CFFF79DB9002131
:10659C00007CFFF7A1B90021007CFFF7A5B9002111
:1065AC00007CFFF7A9B910B51421044600F0CCFD0E
:1065BC00204610BD10B50446002363604FF47A7377
:1065CC00A360044B2174084623601146FFF7A4F91D
:1065DC00204610BDC8830D0000231A461946007CC6
:1065EC00FFF752B970B50C4686B0142506462A46FC
:1065FC00002101A801F091FD23788DF80830636823
:10660C000393E36804930022237A307CADF80450A2
:10661C0001A90593FFF788F906B070BD1FB50033CB
:10662C008DF800104FF06401039118BF01236946E7
:10663C0001928DF80830FFF7D5FF05B05DF804FB2B
:10664C000123FFF7EBBF0022007CFFF725B90022E6
:10665C00007CFFF729B90121FFF7F9BF0021007C6D
:10666C00FFF752B9002211464068FFF731BA0022F9
:10667C0011464068FFF73CBA00224068FFF730BA79
:10668C00002281F001014068FFF71ABA00231A4674
:10669C0001214068FFF70CBA00231A4619464068DE
:1066AC00FFF7FEB9002211464068FFF7F1B900224E
:1066BC0011464068FFF7DCB9002202214068FFF761
:1066CC00DFB900231A464068FFF7CAB938B505464A
:1066DC0088B104684CB1A3681BB103222146204643
:1066EC0098471021204600F02FFD28461421BDE8C4
:1066FC00384000F029BD38BD10B103685B681847FD
:10670C00704710B503680446BBB15868FFF734F8FE
:10671C0078B923685A7C12B95868FFF735F82368A2
:10672C005868FFF739F820680023236028B1FFF779
:10673C00CDFF206808B1FFF7C9FF204610BD38B562
:10674C000446D0F8C40108B1FDF7A5FCD4F8C0018B
:10675C0008B1FFF731F8D4F8BC5135B12846FFF732
:10676C00D0FF0421284600F0EFFC206808B1FFF7A9
:10677C00C3FF204638BD000010B5044B044640F85A
:10678C00083BFFF7DCFF204610BD00BFF0830D0077
:10679C0038B50E4C0E4B23600025022304F5E47033
:1067AC006360A560C4F8C451C4F8C851FEF7FCFF7F
:1067BC00084BC4F8CC5184F8D05123602046064ACB
:1067CC000649BDE8384000F0B1BC00BF40E50320ED
:1067DC00D8840D00F0830D0008E4032085670D00BC
:1067EC0037B502AC036804F8011DDD6B01224FF0D4
:1067FC00FF332146A84703B030BD10B40368DC6BEF
:10680C004FF0FF33A4465DF8044B604737B502AC3C
:10681C00036804F8011DDD6B214613460122A847CD
:10682C0003B030BD704738B543691A68002A044676
:10683C0005DAB3F88620B3F884309A4201D00125EA
:10684C000BE003681B699847002814BF012500253D
:10685C0003D123682046DB6A9847284638BD436934
:10686C001868C043C00F704770470020704710B5C0
:10687C001421044600F068FC204610BDFDF709BC4D
:10688C007FB5164600224260029203925A1C0446BF
:10689C000D4608D04FF47A72B3FBF2F1029102FB71
:1068AC0011314A43039260690823009341F20502B7
:1068BC006B4440F6FF710068FFF73EF8002808DBD8
:1068CC0060690023324629460068FFF755F8002816
:1068DC0004DAFFF73DF903686360002004B070BD73
:1068EC0010B5036804469B689847A368013BA360F6
:1068FC002BB923682046DB68BDE81040184710BD53
:10690C0070B504464D69054B44F8043B8C3506467E
:10691C000FCD0FC42B682370304670BD54830D000F
:10692C0010B54369B3F88620B3F884309A42044614
:10693C0005D06269B2F884301344187910BD03682D
:10694C001B6998470028F4D14FF0FF3010BD10B5EB
:10695C004369B3F88620B3F884309A42044608D0D1
:10696C006269B2F88430591C1344A2F88410187967
:10697C0010BD03681B6998470028F1D14FF0FF3018
:10698C0010BDF8B543691746B3F88620B3F88430C8
:10699C009A4205460E4606D103681B69984710B902
:1069AC004FF0FF3414E06969B1F88430B1F88640D7
:1069BC00E41ABC4228BF3C461944224604313046F6
:1069CC0001F0A0FB6A69B2F884302344A2F8843049
:1069DC002046F8BD2DE9F0439846036893B0DB6A76
:1069EC000D4606461746984712AB002443F8484D0F
:1069FC00224621462846FEF70FFE814600283DD14F
:106A0C00009B002B56D05B69002B53D006A8FFF7D8
:106A1C00FFFB009B5C696378022B01D1211D13E005
:106A2C000A2B14D11122494601A801F076FBA36868
:106A3C0033BBE36823BB4FF6FF702569FEF7D4FE2A
:106A4C0085421DD104F1140106A8FFF724FC06A809
:106A5C00FFF7FEFB00282DD0336807ADD3F820904C
:106A6C00184B0C930FCD0DAC0FC42B6823703A460A
:106A7C0043460CA93046C84781461BE0A14619E0A5
:106A8C0004F1080301AD1834186859682A4603C28A
:106A9C000833A3421546F7D1062301A90CA80DAD66
:106AAC008DF81430FFF7C2FB0FCD07AC0FC42B6869
:106ABC002370CCE70098FEF7A7FD484613B0BDE85D
:106ACC00F08300BF54830D0042690023A2F8843088
:106ADC004269A2F8863070472DE9F0411E460368E2
:106AEC000C468AB0DB6A054617469847237DD5F8D5
:106AFC001480042B0CBF02200A2006220121FEF771
:106B0C0043FFC8F800006B691B68002B18DB284694
:106B1C00FFF7DAFFD6B1002303A9F0B20393ADF867
:106B2C001030FEF7E1FD58B968690623009341F275
:106B3C000B0203AB40F6FF710068FEF7FDFE28B1B7
:106B4C002B682846DB6A002498473BE01C2632461B
:106B5C00002103A801F0E1FA237D8DF80C60042BD1
:106B6C000CD1022338468DF80D30FEF745FEADF8FA
:106B7C000E006068FEF738FE049013E00A233846D6
:106B8C008DF80D30FEF738FE05AEADF80E00231D66
:106B9C0004F1140718685968324603C20833BB4223
:106BAC001646F7D16B691C2203A91868FEF7D4FEB0
:106BBC000028C5D104340FCC6D698C350FC5236802
:106BCC002B70012420460AB0BDE8F08110B5436952
:106BDC0004461868002801DBFEF7B6FE63694FF027
:106BEC00FF321A606069112200218C3001F095FA95
:106BFC002046BDE81040FFF767BF000030B5426982
:106C0C00B2F886308BB004461BB1B2F884209A429D
:106C1C0040D06369186800283FDBB3F886507F2D9D
:106C2C003BD8191DC5F1800208232944FEF79CFEB0
:106C3C0000280CDD6369B3F886200AB9A3F8842018
:106C4C006269B2F886301844A2F8860025E0FEF797
:106C5C007FFF03680B2B20D0FEF77AFF03680B2B0A
:106C6C001BD02023002502930395FEF771FF0368C8
:106C7C0001930E4B009302AA2B460D493220FEF7CE
:106C8C00C3FE63691868FEF75FFE63694FF0FF325D
:106C9C001A6002E0FFF718FFBBE76269B2F88630B2
:106CAC00B2F88400181A0BB030BD00BF8B840D00F5
:106CBC0084840D0010B5002304460160A0F88430D4
:106CCC00A0F886308830FFF7A3FA204610BD0000EC
:106CDC004FF47A7270B500238260144A43600260EC
:106CEC00436183610446A0200E46FDF7CEF90546AC
:106CFC0010B13146FFF7DEFF1420FDF7C6F903464D
:106D0C0028B1012242608260094A02600561A069D3
:106D1C006561A36128B14368013B43600BB9FFF780
:106D2C00DFFD2046FFF7D0FE204670BD40840D00ED
:106D3C0024840D0010B54FF0FF310446FFF7C8FF57
:106D4C00204610BD10B504460068002801DBFEF794
:106D5C00FBFD204610BD10B504692046FFF7F2FF7D
:106D6C0024B12046BDE81040FDF793B910BD0022B8
:106D7C0011464068FEF78CBE002211464068FEF7B3
:106D8C00A7BE002211464068FEF7B2BE0022406842
:106D9C00FEF7A6BE002281F001014068FEF790BE0E
:106DAC0000231A4619464068FEF782BE00231A4695
:106DBC0019464068FEF774BE002211464068FEF783
:106DCC0057BE002202214068FEF75ABE00231A4625
:106DDC004068FEF745BE0000024B04225A60024A8E
:106DEC001A60704714E70320A4840D0000231A4690
:106DFC004068FEF735BE002202214068FEF740BE17
:106E0C00002211464068FEF733BE0022114640684E
:106E1C00FEF73EBE00231A4619464068FEF740BEF8
:106E2C0000231A4619464068FEF742BE002281F044
:106E3C0001014068FEF744BE00224068FEF750BED8
:106E4C00002211464068FEF753BE002211464068EE
:106E5C00FEF73EBE2DE9F043002495B016460D46D4
:106E6C000746FFF7D5F9214620220CA8009401F023
:106E7C0054F940230C9321466B460CAA3046FEF77E
:106E8C00CBFB0446002844D1024601216868FEF77A
:106E9C00FFFD0221804622466868FEF7F9FD009E40
:106EAC0081462146002E34D0002932D17368022B42
:106EBC0002D00A2B09D02AE0B8F1000F27D0716953
:106ECC0038460431FFF7E7F920E0B9F1000F1ED086
:106EDC007469112201A801F020F906238DF81430F1
:106EEC0001AD04F108031834186859682A4603C226
:106EFC000833A3421546F7D101A906A807ADFFF741
:106F0C0095F90FCD3C1D0FC42B6823700121F66938
:106F1C00C8E70098FEF778FB384615B0BDE8F0835B
:106F2C00024B034A1A6000225A6070471CE7032088
:106F3C00D8840D0070B5184E316811F00105044667
:106F4C000AD13046FDF7A9F830B129461348FEF7AF
:106F5C0045FE3046FDF7A6F81048FEF749FE28B16D
:106F6C00A4F10B03022B01D8002070BD00F0B8F87F
:106F7C00FFF774FB08B1012CF6D9FFF7AFFAFFF756
:106F8C00A9FA18B1A4F10903012BEDD9232C8CBF5C
:106F9C000020012070BD00BF24E7032028E7032058
:106FAC00232838B504460D460AD8FF2908D0FFF728
:106FBC00C1FF28B129462046BDE83840FEF744BB46
:106FCC0038BD38B504460D46FEF746FBFF2810D0F9
:106FDC00062804D84D2323FA00F0C30709D4204611
:106FEC00FFF7A8FF28B129462046BDE83840FEF738
:106FFC003BBB38BD0D2810B504469CBF0E34A4B263
:10700C002046FFF797FF50B103212046FEF714FBF3
:10701C00032804D12046BDE81040FEF74DBB0020EC
:10702C0010BD000030B51C4D89B004462068FEF739
:10703C006BFBFEF779FB2B682268C01A9042F5D3E4
:10704C00236833B3E36823B3251D23692846984787
:10705C00002304A9684602930693FEF7F8FF029BEF
:10706C00069A02920693079A039B0793294604A853
:10707C000392FEF7ECFF069BE268E360079B069227
:10708C0004A8226923610792FDF73DF86846FDF7D5
:10709C003AF809B030BD00BF30E7032008B5FFF760
:1070AC00C1FF0020BDE80840FEF776BB70B5044672
:1070BC0014252A46094E002101F02FF825802025A1
:1070CC003146A5602561284600F040F831466060E5
:1070DC00284600F03BF8E060204670BD04850D00AA
:1070EC0030B50E4D296811F0010487B013D1284634
:1070FC00FCF7D3FF78B101A8FFF7D8FF01AA21460E
:10710C000748FFF757FA2846FCF7CCFF054A064913
:10711C00034800F00BF8024807B030BD34E70320F9
:10712C0038E7032008E4032069650D000B4601468F
:10713C00184600F0D9BF0000024B1868BFF35F8FF0
:10714C00704700BF4CE70320FCF7A3BF00F000B86A
:10715C0010B5002814BF044601242046FEF7D8FCC5
:10716C0020B9FFF7E9FF08B18047F6E710BD08B575
:10717C00FEF7E6FC184B1A68D1075CBF01221A60B7
:10718C00164B1A68D2075CBF01221A60144B1A689E
:10719C00D0075CBF01221A60124B1A68D1075CBF82
:1071AC0001221A60104B1A68D2075CBF01221A60C8
:1071BC000E4B1A68D0075CBF01221A600C4B1A6880
:1071CC00D1075CBF01221A600A4B1A68D2075CBF58
:1071DC0001221A60704700BF6CE7032068E70320A8
:1071EC0064E7032060E703205CE7032058E70320F3
:1071FC0054E7032050E70320244B1A68D0075CBFE8
:10720C0001221A60224B1A68D1075CBF01221A6056
:10721C00204B1A68D2075CBF01221A601E4B1A68F9
:10722C00D0075CBF01221A601C4B1A68D1075CBFE7
:10723C0001221A601A4B1A68D2075CBF01221A602D
:10724C00184B1A68D0075CBF01221A60164B1A68DB
:10725C00D1075CBF01221A60144B1A68D2075CBFBD
:10726C0001221A60124B1A68D0075CBF01221A6007
:10727C00104B1A68D1075CBF01221A600E4B1A68BA
:10728C00D2075CBF01221A60704700BF9CE7032045
:10729C0098E7032094E7032090E703208CE7032072
:1072AC0088E7032084E7032080E703207CE70320A2
:1072BC0078E7032074E7032070E70320244B1A6857
:1072CC00D0075CBF01221A60224B1A68D1075CBF41
:1072DC0001221A60204B1A68D2075CBF01221A6087
:1072EC001E4B1A68D0075CBF01221A601C4B1A682F
:1072FC00D1075CBF01221A601A4B1A68D2075CBF17
:10730C0001221A60184B1A68D0075CBF01221A6060
:10731C00164B1A68D1075CBF01221A60144B1A680D
:10732C00D2075CBF01221A60124B1A68D0075CBFEF
:10733C0001221A60104B1A68D1075CBF01221A6037
:10734C000E4B1A68D2075CBF01221A60704700BF4F
:10735C00CCE70320C8E70320C4E70320C0E70320E1
:10736C00BCE70320B8E70320B4E70320B0E7032011
:10737C00ACE70320A8E70320A4E70320A0E7032041
:10738C00184B1A68D1075CBF01221A60164B1A6899
:10739C00D2075CBF01221A60144B1A68D0075CBF7D
:1073AC0001221A60124B1A68D1075CBF01221A60C5
:1073BC00104B1A68D2075CBF01221A600E4B1A6878
:1073CC00D0075CBF01221A600C4B1A68D1075CBF56
:1073DC0001221A600A4B1A68D2075CBF01221A609C
:1073EC00704700BFECE70320E8E70320E4E7032045
:1073FC00E0E70320DCE70320D8E70320D4E70320F1
:10740C00D0E7032081F0004102E000BF83F000438D
:10741C0030B54FEA41044FEA430594EA050F08BF23
:10742C0090EA020F1FBF54EA000C55EA020C7FEAE7
:10743C00645C7FEA655C00F0E2804FEA5454D4EB64
:10744C005555B8BF6D420CDD2C4480EA020281EA2E
:10745C00030382EA000083EA010180EA020281EA66
:10746C000303362D88BF30BD11F0004F4FEA0131B8
:10747C004FF4801C4CEA113102D0404261EB4101C7
:10748C0013F0004F4FEA03334CEA133302D052424D
:10749C0063EB430394EA050F00F0A780A4F1010409
:1074AC00D5F1200E0DDB02FA0EFC22FA05F2801843
:1074BC0041F1000103FA0EF2801843FA05F3594129
:1074CC000EE0A5F120050EF1200E012A03FA0EFCA8
:1074DC0028BF4CF0020C43FA05F3C01851EBE371D2
:1074EC0001F0004507D54FF0000EDCF1000C7EEBEF
:1074FC0000006EEB0101B1F5801F1BD3B1F5001F2D
:10750C000CD349085FEA30004FEA3C0C04F101044B
:10751C004FEA445212F5800F80F09A80BCF1004F74
:10752C0008BF5FEA500C50F1000041EB045141EAF6
:10753C00050130BD5FEA4C0C404141EB010111F4F7
:10754C00801FA4F10104E9D191F0000F04BF0146A2
:10755C000020B1FA81F308BF2033A3F10B03B3F180
:10756C0020020CDA0C3208DD02F1140CC2F10C0210
:10757C0001FA0CF021FA02F10CE002F11402D8BF6E
:10758C00C2F1200C01FA02F120FA0CFCDCBF41EA3A
:10759C000C019040E41AA2BF01EB0451294330BD09
:1075AC006FEA04041F3C1CDA0C340EDC04F11404E6
:1075BC00C4F1200220FA04F001FA02F340EA0300BD
:1075CC0021FA04F345EA030130BDC4F10C04C4F103
:1075DC00200220FA02F001FA04F340EA03002946E3
:1075EC0030BD21FA04F0294630BD94F0000F83F42D
:1075FC00801306BF81F480110134013D4EE77FEA10
:10760C00645C18BF7FEA655C29D094EA050F08BF5B
:10761C0090EA020F05D054EA000C04BF194610463C
:10762C0030BD91EA030F1EBF0021002030BD5FEA80
:10763C00545C05D14000494128BF41F0004130BDA8
:10764C0014F580043CBF01F5801130BD01F00045FC
:10765C0045F0FE4141F470014FF0000030BD7FEA6F
:10766C00645C1ABF194610467FEA655C1CBF0B466A
:10767C00024650EA013406BF52EA033591EA030F81
:10768C0041F4002130BD00BF90F0000F04BF002179
:10769C00704730B54FF4806404F132044FF00005AC
:1076AC004FF0000150E700BF90F0000F04BF002125
:1076BC00704730B54FF4806404F1320410F000458B
:1076CC0048BF40424FF000013EE700BF42004FEA86
:1076DC00E2014FEA31014FEA02701FBF12F07F4303
:1076EC0093F07F4F81F06051704792F0000F14BF00
:1076FC0093F07F4F704730B54FF4607401F0004544
:10770C0021F0004120E700BF50EA010208BF70479A
:10771C0030B54FF000050AE050EA010208BF70478F
:10772C0030B511F0004502D5404261EB41014FF4F8
:10773C00806404F132045FEA915C3FF4DCAE4FF0FC
:10774C0003025FEADC0C18BF03325FEADC0C18BFE3
:10775C00033202EBDC02C2F1200300FA03FC20FA34
:10776C0002F001FA03FE40EA0E0021FA02F1144481
:10777C00C1E600BF70B54FF0FF0C4CF4E06C1CEA96
:10778C0011541DBF1CEA135594EA0C0F95EA0C0F0B
:10779C0000F0DEF82C4481EA030621EA4C5123EA7E
:1077AC004C5350EA013518BF52EA033541F48011AD
:1077BC0043F4801338D0A0FB02CE4FF00005E1FB60
:1077CC0002E506F00042E0FB03E54FF00006E1FBAA
:1077DC0003569CF0000F18BF4EF0010EA4F1FF04ED
:1077EC00B6F5007F64F5407404D25FEA4E0E6D412D
:1077FC0046EB060642EAC62141EA55514FEAC5203E
:10780C0040EA5E504FEACE2EB4F1FD0C88BFBCF5B9
:10781C00E06F1ED8BEF1004F08BF5FEA500E50F16A
:10782C00000041EB045170BD06F0004646EA010130
:10783C0040EA020081EA0301B4EB5C04C2BFD4EB62
:10784C000C0541EA045170BD41F480114FF0000E5B
:10785C00013C00F3AB8014F1360FDEBF002001F0C9
:10786C00004170BDC4F10004203C35DA0C341BDC43
:10787C0004F11404C4F1200500FA05F320FA04F015
:10788C0001FA05F240EA020001F0004221F0004149
:10789C0010EBD37021FA04F642EB06015EEA430EBC
:1078AC0008BF20EAD37070BDC4F10C04C4F12005EC
:1078BC0000FA04F320FA05F001FA04F240EA02009F
:1078CC0001F0004110EBD37041F100015EEA430E70
:1078DC0008BF20EAD37070BDC4F1200500FA05F290
:1078EC004EEA020E20FA04F301FA05F243EA02030F
:1078FC0021FA04F001F0004121FA04F220EA02001E
:10790C0000EBD3705EEA430E08BF20EAD37070BD63
:10791C0094F0000F0FD101F00046400041EB010143
:10792C0011F4801F08BF013CF7D041EA060195F025
:10793C00000F18BF704703F00046520043EB0303DF
:10794C0013F4801F08BF013DF7D043EA06037047CC
:10795C0094EA0C0F0CEA135518BF95EA0C0F0CD0D7
:10796C0050EA410618BF52EA4306D1D181EA03011D
:10797C0001F000414FF0000070BD50EA410606BF17
:10798C001046194652EA430619D094EA0C0F02D15C
:10799C0050EA013613D195EA0C0F05D152EA0336A1
:1079AC001CBF104619460AD181EA030101F00041BF
:1079BC0041F0FE4141F470014FF0000070BD41F008
:1079CC00FE4141F4780170BD70B54FF0FF0C4CF4E2
:1079DC00E06C1CEA11541DBF1CEA135594EA0C0F01
:1079EC0095EA0C0F00F0A7F8A4EB050481EA030E4E
:1079FC0052EA03354FEA013100F088804FEA033335
:107A0C004FF0805545EA131343EA12634FEA022202
:107A1C0045EA111545EA10654FEA00260EF00041C3
:107A2C009D4208BF964244F1FD0404F5407402D215
:107A3C005B084FEA3202B61A65EB03055B084FEAA6
:107A4C0032024FF480104FF4002CB6EB020E75EBA3
:107A5C00030E22BFB61A754640EA0C005B084FEACB
:107A6C003202B6EB020E75EB030E22BFB61A754648
:107A7C0040EA5C005B084FEA3202B6EB020E75EB93
:107A8C00030E22BFB61A754640EA9C005B084FEA0B
:107A9C003202B6EB020E75EB030E22BFB61A754618
:107AAC0040EADC0055EA060E18D04FEA051545EA07
:107ABC0016754FEA06164FEAC30343EA52734FEAB0
:107ACC00C2025FEA1C1CC0D111F4801F0BD141EA29
:107ADC0000014FF000004FF0004CB6E711F4801F8E
:107AEC0004BF01430020B4F1FD0C88BFBCF5E06F6E
:107AFC003FF6AFAEB5EB030C04BFB6EB020C5FEA7E
:107B0C00500C50F1000041EB045170BD0EF0004ED2
:107B1C004EEA113114EB5C04C2BFD4EB0C0541EA04
:107B2C00045170BD41F480114FF0000E013C90E601
:107B3C0045EA060E8DE60CEA135594EA0C0F08BFC5
:107B4C0095EA0C0F3FF43BAF94EA0C0F0AD150EAC4
:107B5C0001347FF434AF95EA0C0F7FF425AF104657
:107B6C0019462CE795EA0C0F06D152EA03353FF47F
:107B7C00FDAE1046194622E750EA410618BF52EAFC
:107B8C0043067FF4C5AE50EA41047FF40DAF52EAD0
:107B9C0043057FF4EBAE12E74FF0FF3C06E000BF6D
:107BAC004FF0010C02E000BF4FF0010C4DF804CD7A
:107BBC004FEA410C7FEA6C5C4FEA430C18BF7FEA3A
:107BCC006C5C1BD001B050EA410C0CBF52EA430C68
:107BDC0091EA030F02BF90EA020F0020704710F1E8
:107BEC00000F91EA030F58BF994208BF90422CBF77
:107BFC00D8176FEAE37040F0010070474FEA410C70
:107C0C007FEA6C5C02D150EA013C07D14FEA430C8D
:107C1C007FEA6C5CD6D152EA033CD3D05DF8040BFE
:107C2C00704700BF8446104662468C461946634630
:107C3C0000E000BF01B5FFF7B7FF002848BF10F107
:107C4C00000F01BD4DF808EDFFF7F4FF0CBF01204C
:107C5C0000205DF808FB00BF4DF808EDFFF7EAFFC8
:107C6C0034BF012000205DF808FB00BF4DF808ED83
:107C7C00FFF7E0FF94BF012000205DF808FB00BF78
:107C8C004DF808EDFFF7CEFF94BF012000205DF802
:107C9C0008FB00BF4DF808EDFFF7C4FF34BF01200F
:107CAC0000205DF808FB00BF4A0011D212F500124B
:107CBC0011D20DD56FF47873B3EB62520ED44FEA38
:107CCC00C12343F0004343EA505323FA02F07047B8
:107CDC004FF00000704750EA013002D14FF0FF30F6
:107CEC0070474FF0000070474FEA4102B2F1E04399
:107CFC0024BFB3F5001CDCF1FE5C0DD901F0004C87
:107D0C004FEAC0024CEA5070B2F1004F40EB8300D6
:107D1C0008BF20F00100704711F0804F21D113F102
:107D2C003872BCBF01F00040704741F480114FEA3B
:107D3C005252C2F11802C2F1200C10FA0CF320FAC4
:107D4C0002F018BF40F001004FEAC1234FEAD323E1
:107D5C0003FA0CFC40EA0C0023FA02F34FEA43034B
:107D6C00CCE77FEA625307D150EA01331EBF4FF0D4
:107D7C00FE4040F44000704701F0004040F0FE40EF
:107D8C0040F40000704700BF53B94AB9002908BF3E
:107D9C0000281CBF4FF0FF314FF0FF3000F0A2B9AC
:107DAC00ADF1080C6DE904CE00F02AF8DDF804E022
:107DBC00DDE9022304B07047D0B500220E4B064615
:107DCC000F46FFF7D7FCFFF76FFF0446FFF75CFC8D
:107DDC0000220A4BFFF7CEFC02460B4630463946D2
:107DEC00FFF714FBFFF760FF2346002242EA000274
:107DFC0010461946D0BD00BF0000F03D0000F04118
:107E0C002DE9F0478C460E460446089D002B50D1B8
:107E1C008A4217466CD9B2FA82FEBEF1000F0BD023
:107E2C00CEF1200420FA04F401FA0EF644EA060C12
:107E3C0002FA0EF700FA0EF44FEA1749220CBCFBBB
:107E4C00F9F01FFA87F809FB10C642EA064600FB58
:107E5C0008F3B34209D9F61900F1FF3280F0228100
:107E6C00B34240F21F8102383E44F61AA2B2B6FB6E
:107E7C00F9F309FB136642EA064403FB08F8A04534
:107E8C0009D9E41903F1FF3280F00A81A04540F2D0
:107E9C000781023B3C44C8EB040443EA0040002148
:107EAC00002D62D024FA0EF400232C606B60BDE828
:107EBC00F0878B4207D9002D55D0002185E8410071
:107ECC000846BDE8F087B3FA83F1002940F09080B2
:107EDC00B34202D3824200F2F880841A66EB0306A6
:107EEC000120B446002D40D085E81010BDE8F08785
:107EFC0012B90127B7FBF2F7B7FA87FEBEF1000FF4
:107F0C0035D1F31B4FEA17481FFA87FC0121B3FB4D
:107F1C00F8F0220C08FB103642EA06460CFB00F384
:107F2C00B34207D9F61900F1FF3202D2B34200F284
:107F3C00CE801046F61AA2B2B6FBF8F308FB136615
:107F4C0042EA06440CFB03FCA44507D9E41903F1EF
:107F5C00FF3202D2A44500F2B5801346CCEB0404E8
:107F6C0043EA00409CE729462846BDE8F087CEF15D
:107F7C00200106FA0EF307FA0EF720FA01F94FEA80
:107F8C001748CE4049EA0309B6FBF8FA4FEA194400
:107F9C0008FB1A661FFA87FC44EA06430AFB0CF23C
:107FAC009A4200FA0EF40AD9DB190AF1FF3180F07B
:107FBC0087809A4240F28480AAF1020A3B449B1AC1
:107FCC001FFA89F9B3FBF8F108FB113349EA0343B3
:107FDC0001FB0CF69E4207D9DB1901F1FF326BD283
:107FEC009E4269D902393B449B1B41EA0A418EE708
:107FFC00C1F1200E22FA0EF48B40234320FA0EF727
:10800C0006FA01F44FEA134C26FA0EF63C43B6FB83
:10801C00FCF9270C0CFB19661FFA83F847EA064695
:10802C0009FB08F7B74202FA01F200FA01FA08D983
:10803C00F61809F1FF3041D2B7423FD9A9F1020934
:10804C001E44F61BA0B2B6FBFCF40CFB146640EA13
:10805C00064704FB08F8B84507D9FF1804F1FF30B0
:10806C0028D2B84526D9023C1F4444EA0940C8EB43
:10807C000707A0FB02894F4544464E4614D329D02E
:10808C0065B3BAEB040367EB060707FA0EFECB40A9
:10809C00CF404EEA030385E888000021BDE8F08755
:1080AC001346F8E61046E0E6B8EB020469EB03066B
:1080BC000138E5E70446D8E7114695E78146C0E765
:1080CC008A467CE7023B3C4448E708460AE702380C
:1080DC003E442FE7C245E7D33E46D1E72946BDE8EB
:1080EC00F08700BF704700BF10B5054C13462CB18C
:1080FC000A4601460220AFF3008010BD204610BD99
:10810C000000000010B5431E0A44914204D011F83F
:10811C00014B03F8014FF8E710BD024403469342AC
:10812C0002D003F8011BFAE77047000038B5124B78
:10813C001C68A36B0546D3B91820FDF7E9FC43F284
:10814C000E33A06303804AF6CD33438041F23423CF
:10815C0083804EF26D63C3804DF6EC63038105237F
:10816C0043810B23838101220023C0E90423A36BE9
:10817C0000221D615A6138BD04E40320034613F844
:10818C00012B002AFBD1181A013870471D400D0035
:10819C0059400D0085400D0089400D000000000085
:1081AC0070686F746F6E446576006170707764747C
:1081BC0000566572792057657400566572792044B3
:1081CC0072790054656D7000536F696C0055564997
:1081DC00647800466C6F770056616C766500746548
:1081EC0073742E6D6F7371756974746F2E6F726703
:1081FC000000044D5154540400064D5149736470F1
:10820C00030000000000000000000000CB5B0D002C
:10821C00C15B0D00B75B0D00AD5B0D00A15B0D00EC
:10822C00955B0D00895B0D00815B0D00775B0D008C
:10823C006D5B0D00616E0D006261756400536572BB
:10824C0069616C0053657269616C31007479706599
:10825C0000706172616D00636D6400696400686E2A
:10826C0064007374726D0066696C74006C766C00DB
:10827C0061646448616E646C65720072656D6F76E2
:10828C006548616E646C657200656E756D48616EF3
:10829C00646C657273004A534F4E53747265616D12
:1082AC004C6F6748616E646C65720061707000257C
:1082BC003031307520005D20002C200028293A2018
:1082CC0000205B00636F6465203D2000256900641D
:1082DC00657461696C73203D20000D0A0066006CAA
:1082EC006E00666E00636F64650064657461696C32
:1082FC00006E6F6E6500747261636500696E666F07
:10830C00007761726E006572726F720070616E69D7
:10831C006300616C6C005A00252B3033643A2530B5
:10832C0032750025592D256D2D25645425483A2587
:10833C004D3A2553257A0061736374696D650000AD
:10834C000000000000000000B9610D00A9610D00E3
:10835C00AB610D000000000000000000D1620D00B8
:10836C0021630D002F630D00915F0D000D630D0057
:10837C00D3620D00E9620D001B630D00FF620D005E
:10838C00CD620D00000000000000000031640D0003
:10839C0081640D008F640D00915F0D0045640D002C
:1083AC0067640D0053640D007B640D0033640D0095
:1083BC0037640D00000000000000000069650D002E
:1083CC00B3650D008B650D006B650D0093650D009D
:1083DC009B650D00A3650D00AB650D000000000052
:1083EC0000000000CF660D00C5660D00BB660D00D9
:1083FC00B1660D00A5660D0099660D008D660D0029
:10840C0085660D007B660D0071660D00616E0D00BA
:10841C00000000000000000075680D007B680D0076
:10842C00636D0D0089680D0077680D000000000079
:10843C0000000000294E0D005D4E0D00ED670D0093
:10844C0007680D00096C0D005B690D002D690D00AE
:10845C0031680D00E56A0D00E1690D008F690D00B2
:10846C00D96B0D0033680D006B680D0019680D0099
:10847C008D680D000D690D00776972696E67007269
:10848C00656376206572726F72203D202564000052
:10849C000000000000000000D96D0D00CF6D0D0034
:1084AC00C56D0D007B6D0D00B96D0D00AD6D0D0032
:1084BC00A16D0D00996D0D008F6D0D00856D0D007A
:1084CC00616E0D000000000000000000F96D0D0051
:1084DC00036E0D000D6E0D00176E0D00216E0D005C
:1084EC002D6E0D00396E0D00456E0D004D6E0D009C
:1084FC00576E0D00616E0D000000000000000000C2
:10850C00000000000000000000000000000000005F
:10851C00000000000000000000000000000000004F
:10852C00000000000000000000000000000000003F
:10853C00000000000000000000000000000000002F
:10854C00000000000000000000000000000000001F
:10855C0000000000000000000000000043000000CC
:10856C00E5440D0079490D0089490D00C14B0D0002
:10857C00254E0D0011560D00D55B0D00315C0D0024
:10858C00695F0D0025600D0035600D007D600D00EC
:10859C009D670D00E56D0D002D6F0D0081710D00B7
:1085AC0005720D00C9720D008D730D0000000000E6
:0485BC0000000000BB
:0885C0004CF8FF7F01000000F0
:0485C80000000000AF
:1085CC007F01000043830D000000000008850D00B2
:1085DC0028850D0048850D000000000000000000FB
:1085EC00000000000000000068850D000000000085
:1085FC00000000000000000000000000000000006F
:10860C00000000000000000000000000000000005E
:10861C00000000000000000000000000000000004E
:0C862C000000000000000000A4E3032098
:10863800FFFFFFFF00000102030405060708090AFF
:108648000B0C0D0E0F101112131415161718191AFA
:088658001B1C1D1E1F20280041
:048660007856341202
:04000003D000401CCD
:00000001FF
